:02000000802856
:10000800FF00030E8301AE000A08AD008A017008E4
:10001800A3007B08A2007C08A1007D08A000850140
:10002800870189018601880100302402031C3928D0
:100038000617861524088700240888000B30FB0063
:100048002630FC005D30FD00FD0B2828FC0B28281D
:10005800FB0B2828000000002408003A031D37285D
:100068000330A4003928A40318288B1C5E28861C9A
:100078004728061686160611861306138611061CCF
:10008800462847283B28861853280615861706123F
:10009800861206138611061C522853284728061C68
:1000A800562857283B28061286120611861306136F
:1000B80086118B102308F0002208FB002108FC00A1
:1000C8002008FD002D088A002E0E8300FF0E7F0EEB
:0200D80009001D
:0E00DA00831203132A088A00290882000800F6
:1000E8006D208A110A128000840AA90A0319AA0A33
:0800F800F003031D7428080049
:10010000033083120313A400A501A601A701A801CF
:10011000483083169F0003308600870185018901DE
:1001200088018312850187018901860188018B1767
:100130000B168316011301308312A6000530A700A9
:100140000130A5000230A8000130AC0006152C08D3
:100150000319AC288617AD2806172508850028083E
:10016000880026088900270887000B30FB0026300E
:10017000FC005D30FD00FD0BBB28FC0BBB28FB0B1E
:10018000BB2800000000A703A8032608003A031DAF
:10019000E4282708003A031DE428260889002708D8
:1001A000870025088500280888000B30FB002630D2
:1001B000FC005D30FD00FD0BDB28FC0BDB28FB0B9E
:1001C000DB28000000004E292708003A031D0629FD
:1001D0002608003A031906292608890027088700FF
:1001E0002508850028088800A8030B30FB0026306E
:1001F000FC005D30FD00FD0BFB28FC0BFB28FB0B1E
:10020000FB2800000000A6030930A7002808003AD8
:10021000031D28292508003A0319282925088500E7
:10022000280888002608890027088700A7030B30C4
:10023000FB002630FC005D30FD00FD0B1D29FC0B92
:100240001D29FB0B1D2900000000A5030930A80093
:100250002508003A031D4D292808003A031D4D29A1
:1002600026088900270887002508850028088800B7
:100270000B30FB002630FC005D30FD00FD0B3E29FD
:10028000FC0B3E29FB0B3E29000000002608A500C0
:100290002708A80086130617AC01A6280613061126
:1002A0000230A600A7010230A5000330A8000130EB
:1002B000AB0086162B0803195F29061660298615E0
:1002C0002508850028088800260889002708870057
:1002D0000B30FB002630FC005D30FD00FD0B6E296D
:1002E000FC0B6E29FB0B6E29000000002708003A6A
:1002F000031D98292608003A03199829A6030930F6
:10030000A700A80326088900093087002508850072
:10031000280888000B30FB002630FC005D30FD0013
:10032000FD0B9029FC0B9029FB0B9029000000008D
:10033000A703A8032608003A031DBF292708003A8F
:10034000031DBF2926088900270887002508850086
:10035000280888000B30FB002630FC005D30FD00D3
:10036000FD0BB029FC0BB029FB0BB02900000000ED
:100370002508A6002808A70006128615AB01280844
:10038000003A031DE1292508003A0319E12925084F
:100390008500280888002608890027088700A70309
:1003A0000B30FB002630FC005D30FD00FD0BD62934
:1003B000FC0BD629FB0BD62900000000A503093051
:1003C000A8002508003A031D002A2808003A031D4A
:1003D000002A2608890027088700250885002808A4
:1003E00088000B30FB002630FC005D30FD00FD0B6B
:1003F000F729FC0BF729FB0BF72900000000012A65
:0C04000059290612861286119B28052A35
:02400E004A2F37
:00000001FF
